:040000006F00100578
:10000400000000000000000090000020B003002069
:10001400A9BDF9F5940000200000000000000000D4
:10002400960000209800002000000000000000005E
:10003400F8010020000000009C00002000000000E7
:10004400C6000020A0000020A2000020A400002080
:10005400A6000020A8000020AA000020AC00002078
:10006400D0010020B0000020B2000020B400002025
:10007400B6000020B8000020BA000020BC00002018
:10008400BE000020C000002068010020C400002041
:1000940001A001A001A001A001A001A001A001A054
:1000A40001A001A001A001A001A001A001A001A044
:1000B40001A001A001A001A001A001A001A001A034
:1000C40001A001A001A03727004083476700858B6A
:1000D40081C785472303F700138701A25C57384380
:1000E400850723A6F1A4914663E6E60297B600E0ED
:1000F4009386865E0A073697184336970287194710
:10010400637AF70023A601A4854723A0F1A619A0CA
:1001140023A601A4730020300947E37DF7FE8D4731
:10012400EDB71947E378F7FE83C701A585CF238888
:1001340001A423A601A423AA01A6854723A0F1A60E
:1001440083C71185FD17E207E187A388F184E343A0
:10015400F0FC372700408347070093F7B70F2300CD
:10016400F7004DBF9147D9BF37470040834747C089
:100174009946BD8B6382D702411122C63147374469
:1001840000406381E7041147374400406380E7027D
:100194003244410173002030834757C0730020303C
:1001A400034584C0972000E0E780E0FA8347A4C0B9
:1001B40093F7F70FF5F7E9BF034584C0972000E0F4
:1001C400E78060F98347A4C093F7F70FF5F7C9B741
:1001D400B727004003C76740058B09CF03C7074013
:1001E4001377B70F2380E74005472383E74085470C
:1001F40023AAF18473002030138781861C43504363
:1002040093861700B3B7F600B2975CC314C3B7F76D
:1002140000E023A2070073002030B71700409306C4
:1002240070052380D704130780FA2380E7040100B4
:10023400010003C6B7041376F60DA385C704238013
:1002440007041376050259CE03C6A700118A1DE2DE
:100254002380D7042380E7040100010003C7A7001B
:10026400136747002385E7009307004B0100010053
:10027400FD17EDFFB7170040930670052380D704E0
:10028400130780FA2380E704010001007D89239489
:10029400A70001000100010001002380070423805E
:1002A400D7042380E70401000100372700409306A8
:1002B4001005A303D78023800704B7170040130752
:1002C40070052380E704130780FA2380E704010004
:1002D400010003C7B70413670708A385E704238055
:1002E40007048280137605042DCA03C6A700418A39
:1002F4001DE22380D7042380E7040100010003C723
:10030400A700136707012385E7009307007D010019
:100314000100FD17EDFFB717004093067005238019
:10032400D704130780FA2380E704010001007D89C4
:10033400136505042394A7000100010001000100D6
:10034400238007042380D7042380E70401000100ED
:100354003727004093062005A9BF2380D7042380B4
:10036400E7040100010003D787001367070C2394F7
:10037400E700A1B74111814601468145114506C6F2
:10038400B12AB7170040130770052380E704130749
:1003940080FA2380E7040100010003C767041367A0
:1003A40017002383E70423800704B24041018280BD
:1003B40081460146814511451522B71700401307B0
:1003C40070052380E704130780FA2380E704010003
:1003D40001007D572396E70203C7670413671700DC
:1003E4002383E7042380070401A0BD473305F502F6
:1003F40001007D1575FD8280411122C426C206C606
:10040400AA84014463179400B240224492444101F7
:10041400828005041305803E4204C13F4180DDB75C
:100424002303048015472303E48001002302A480EE
:10043400828083076480E3CE07FE230304808280E6
:1004440083076480E3CE07FE0345448082808307EC
:100454006480E3CE07FE2302A4808280411126C477
:100464004AC24EC006C61377F50BAD47AA892E893A
:1004740095446306F70019456537653F8D444E85FD
:100484004537FD59FD1463983401B240A244124922
:10049400824941018280135509011375F50F453FC7
:1004A4002209CDB7011126CC06CEB7040800513776
:1004B4001545BD37713769372AC6A53F324593774D
:1004C400150089EB136515001375F50FF240E2442E
:1004D40005618280FD14E9FC0145CDBF397126DC3C
:1004E4004ADA4ED852D656D45AD25ED006DE62CEFE
:1004F40066CCB7E700E07D5783AA070022C603AAAB
:10050400470023A0E71823A2E718B71700401307F2
:1005140070052380E704130780FA2380E70483C768
:100524004704930B75FFB684E20793FBFB0F8546E4
:10053400AA892E8B328937240040E187015763FA58
:1005440076016308D5008946130700026313D500BA
:100554000157D98F93F7F70FB71C00402382FC048F
:1005640011472303E4801305F00F5D3D094CD13599
:10057400636D7C11B7050700DA9537870700795555
:1005840063F2E504B3879500636EF702370B080046
:10059400A94733EB65016399F90689E48144513D28
:1005A40026850DA0DA850945553D05090345F9FF62
:1005B400FD14050B693D81C49377FB0FFDF7DD3511
:1005C40069FD7D55B7170040130770052380E704C4
:1005D400130780FA2380E70403C74704418B23826F
:1005E400E704F250B7E700E023A0571123A2471114
:1005F400E25432445259C259325AA25A125B825BB3
:10060400724CE24C21618280A5476395F9068569A5
:100614001309F00FB3069900B3742B01B694134970
:10062400F9FFB3749900856B33796901416B938742
:10063400F9FFB3F7270199E363FC340193D9490027
:10064400C147E3E637FF99BF0569C1697D19D9B789
:100654001305800D63886901130500026384790121
:1006640013051008CA85DD3B353D21DD4E99B38461
:100674003441D9B7DA852D45D533CA94E30099F2CC
:1006840005097D3BA30FA9FED5BF9387F9FF93F717
:10069400F70F6361FC0C83C71C0413073008631F46
:1006A400F70437070800636BEB04B3079B00B70636
:1006B400100063F5D704334BEB0089476393F906C5
:1006C4008980D549E38C04ECDA850945413B11095D
:1006D4000327C9FF91472320E48003076480E34E86
:1006E40007FE23033481FD17EDFBFD14110B81C4B8
:1006F4009377FB0FE9FF7D3371F5E1B5B717004040
:1007040003C75704B70708001377070219E3B7872D
:1007140007007955E378FBEA33079B00E3FFE7F82A
:1007240055B58547E382F9F2DA852D45053B938972
:10073400F4FFE38504E6293393F7390091EB83262C
:1007440004800327090093074900E39AE6E43E89FD
:10075400CE84F1BFB5476396F9001305900BC931F8
:1007640035BDB1471305B00AE38BF9FE9947639190
:10077400F904B7050800B365BB002D45C5318144B4
:100784008D4BA14975396396740183270480232016
:10079400F9008504E39834FF8327048013172B01A1
:1007A400635507002312F900D5BB2322F900FDB3DA
:1007B4009D476399F90281451305B0044531BD4451
:1007C4002320090023220900FD599D3993F7740061
:1007D400CA9703C70700FD14398D2380A700E39649
:1007E40034FF6DBBA1476392F9046D398144630DF5
:1007F4000B008D479304C0036308FB0093040005BA
:1008040063048B01930440041375C507E30895D86A
:100814001945393139390545213126850D390945BF
:100824003D314931E31C05D669BB91476399F90011
:1008340013056006F536F53E130590090DB7E38FF1
:0808440009D4F154A9BB000026
:1008500097110020938101A5177100201301817A5F
:100860001305400097F5FF1F9385C57917060020F3
:100870001306C6FD63FAC5008322050023A05500B8
:1008800011059105E3EAC5FE17E500001305850093
:1008900097050020938585FB1386018163FAC500C7
:1008A0008322050023A0550011059105E3EAC5FE4A
:1008B00013850184938501496377B50023200500E2
:1008C0001105E36DB5FEFD42739002BC8D4273903D
:1008D00042809302800873A0023097F2FF1F938238
:1008E000627293E23200739052309712000093824A
:1008F00062BE73901234730020303D432A876373C5
:10090000C3029377F700BDEFADE5937606FF3D8A0E
:10091000BA960CC34CC30CC74CC74107E36BD7FE58
:1009200011E28280B306C3408A06970200009696C1
:100930006780A6002307B700A306B7002306B70009
:10094000A305B7002305B700A304B7002304B7002D
:10095000A303B7002303B700A302B7002302B70025
:10096000A301B7002301B700A300B7002300B7001D
:10097000828093F5F50F93968500D58D93960501AA
:10098000D58D61B7939627009702000096968682D0
:10099000E78086FA9680C1171D8F3E96E374C3F8F0
:1009A000A5B79317050141815D8D3707FF00935768
:1009B00085001307F70FF98F370701FF130707F0BB
:1009C0002205798D5D8D37170F0F9357450013075B
:1009D000F7F0F98F37F7F0F01307070F1205798D4D
:1009E0005D8D373733339357250013073733F98F2E
:1009F00037D7CCCC1307C7CC0A05798DC98F3757A9
:100A0000555513D5170013075755798D37B7AAAA2F
:100A100086071307A7AAF98F5D8D9D47638BF502A3
:100A200063EDB7009547638AF50263E6B702914725
:100A300071816385F50201458280C1476389F500B4
:100A400093070002638CF500A1476181DDB7418106
:100A5000828065818280698182806D8182800111BE
:100A600022CC26CA06CE2E84B384070139C2914512
:100A70003EC63AC43D372247B2471375F50F639916
:100A8000970033458700F2406244D244056182807A
:100A9000850783C6F7FF358CA146137614000580C1
:100AA00001C6298C1374F40FFD1693F6F60FF5F6B4
:100AB000F9B7939645009318450093F6F60F93F80F
:100AC000F80F63969700918233C5E6006DBF8507E6
:100AD00003C6F7FFB18E214693958601E185860610
:100AE00093F6F60F63D40500B3C616017D16137690
:100AF000F60F7DF2F9B7011122CC26CA06CE2E845C
:100B0000B384070139C295453EC63AC4593D2247D0
:100B1000B2471375F50F6399970033458700F2408C
:100B20006244D24405618280850783C6F7FF358C15
:100B3000A14613761400058001C6298C1374F40FA6
:100B4000FD1693F6F60FF5F6F9B793963500931860
:100B5000350093F6F60F93F8F80F639697008D82A1
:100B600033C5E6006DBF850703C6F7FFB18E21468A
:100B700093958601E185860693F6F60F63D405000A
:100B8000B3C616017D161376F60F7DF2F9B7011183
:100B900022CC26CA06CE2E84B384070139C29945D9
:100BA0003EC63AC4FD3B2247B2471375F50F639921
:100BB000970033458700F2406244D2440561828049
:100BC000850783C6F7FF358CA14613761400058090
:100BD00001C6298C1374F40FFD1693F6F60FF5F683
:100BE000F9B7939625009318250093F6F60F93F81E
:100BF000F80F63969700898233C5E6006DBF8507BD
:100C000003C6F7FFB18E214693958601E1858606DE
:100C100093F6F60F63D40500B3C616017D1613765E
:100C2000F60F7DF2F9B7011122CC26CA06CE2E842A
:100C3000B384070139C29D453EC63AC49D3322475D
:100C4000B2471375F50F6399970033458700F2405B
:100C50006244D24405618280850783C6F7FF358CE4
:100C6000A14613761400058001C6298C1374F40F75
:100C7000FD1693F6F60FF5F6F9B79396150093184F
:100C8000150093F6F60F93F8F80F63969700858298
:100C900033C5E6006DBF850703C6F7FFB18E214659
:100CA00093958601E185860693F6F60F63D40500D9
:100CB000B3C616017D161376F60F7DF2F9B779717A
:100CC00022D426D24AD04ECE06D6AA892E84BA8401
:100CD000338907016311F90291C62285A145D131FB
:100CE0001374F50F33459400B250225492540259B4
:100CF000F2494561828003C50700850715CAA145F1
:100D00003EC636C432C271391246A246B247298C59
:100D10001374F40FA145131784016187060413743B
:100D2000F40F6354070033C48900FD15EDF55DB77A
:100D3000298CCDB7797122D426D24AD04ECE06D690
:100D4000AA892E84BA84338907016312F90299C6ED
:100D50002285C145B9311314050141803345940002
:100D6000B250225492540259F2494561828003C51F
:100D7000070085071DCAA1453EC636C432C21531DB
:100D80002205298C1246A246B24742044180A14561
:100D9000131704010604420441874180635407008D
:100DA00033C48900FD15EDF54DB72205298CC5B773
:100DB000797122D426D24AD04ECE06D6AA892E8464
:100DC000BA84338907016311F90291C6228593051C
:100DD0000002C13E2A8433459400B25022549254FA
:100DE0000259F2494561828003C5070085070DC697
:100DF000A1453EC636C432C26D361246A246B2473F
:100E00006205298CA14522870604635407003344F8
:100E10003401FD15EDF945BF6205298CE5B7411197
:100E200006C6034705009D46AE873288630AD70889
:100E300063EEE6009546630DD70463E7E606914648
:100E4000630CD7020145B24041018280C14663056F
:100E5000D70893060002630DD708A146E314D7FE16
:100E6000034705018346D5000346C5008345850039
:100E700003454500A935C1BF034705018346D50099
:100E80000346C5008345850003454500C93E65BF4F
:100E9000034705018346D5000346C5008345850009
:100EA00003454500893945B7034705018346D50009
:100EB0000346C5008345850003454500C93961B730
:100EC000034705018346D5000346C50083458500D9
:100ED00003454500893B85BF035705018346D5007F
:100EE0000346C5008355850003554500A135A1BFC4
:100EF00018498346D5000346C5000C45B240484119
:100F000041017DB571CA757126C34AC1CEDED2DCFE
:100F1000D6DADAD8DED6E2D4E6D2EAD0EECE06C70A
:100F200022C52A892E8AB284B689C14A97AB0000AD
:100F3000938B0B7D054B094C914C154D97AD0000E3
:100F4000938D8D7F268463F39A004144420441804F
:100F5000740801473306EA00034606003685DE853D
:100F60003AC636C4EF7070553247A2467C08050772
:100F70008D06E34187FE3E86CA8517A5000013054E
:100F8000A5786385690317A500001305A578638F0D
:100F9000890117A500001305A5786389990117A594
:100FA00000001305A5786383A9016E85818CC204B6
:100FB000C180EF70303B229AD1F4BA402A449A445F
:100FC0000A49F659665AD65A465BB65B265C965C69
:100FD000065DF64D496182808280D8418946630B67
:100FE000D70095476366D7008D476308F7008147B0
:100FF0003E85828023120600DDBF98419147E318A9
:10100000F7FE75D57C45411122C426C206C62E8442
:10101000AA8499C783D5A50003558400829701E966
:10102000BC4891C78355A400035584008297B24001
:101030002244814792443E854101828097070020E7
:10104000938747A603D62700C84381451D060D8216
:101050006DB09707002083D7E7A46360F5041707F6
:101060000020035747A43E976379E5021D8D420592
:101070004181137775008547B397E7001707002074
:10108000130747A258430D813A950347050099E598
:1010900093C7F7FFF98F2300F5008280D98FE5BF52
:1010A000DC4191C709476385E7020D45828003D77C
:1010B00085009706002083D6E69E6361D7069707D2
:1010C000002083D7479EB69701456359F704828075
:1010D00083D785009706002083D6C69C014763EB23
:1010E000D7029705002083D5059CB69563D4B70237
:1010F000958F170700201307E79AC2075843C1834B
:1011000093D637003697034707009D8BB357F740B8
:1011100013F717002312E60001458280411197A5BD
:1011200000009385256217A500001305E56206C639
:10113000EF705023B24015454101828001E52392B2
:10114000B184828085476314F5002394B184828042
:10115000DC412320060091C70947638BE700154552
:10116000828003D7850085470145E3EAE7FE828058
:1011700003D7850019E783D741842312F600014580
:10118000FDB785468147E31AD7FE83D78184F5B73B
:101190002392018423940184828017A700001307FF
:1011A000A75C17A600001306265F83574700636EEF
:1011B000F50083566700BE966379D5001447B307E0
:1011C000F5408607B6972390B7003107E31FC7FCA9
:1011D000828017A70000130727598147BA86114854
:1011E000035647006362C50283556700B295637D6D
:1011F000B5003147B387E702118D0605B6979C47C6
:101200003E9503550500828085073107E39A07FD67
:1012100001458280D8412320060085466300D70817
:101220001DC7411122C426C24AC006C68947328959
:101230002E84AA84630AF7048D47630EF70A814758
:10124000B2402244924402493E8541018280984145
:101250008D476319D70283D6850097A7000093872F
:10126000A75097A500009385255303D6470063E751
:10127000C60003D76700329763C8E606B107E39656
:10128000F5FE95473E85828098418D47E31AD7FA4F
:1012900003D585003D3F2312A90055B794418D47E2
:1012A000E392E6FE83D5850017A700001307C74B1E
:1012B0008147BA8691480358470063E905030356FE
:1012C0006700429663D4C5023147B387E702B697F9
:1012D000984385468147E307D7FA89469547E31344
:1012E000D7FA0347150359DF814769BF85073107DF
:1012F000E39317FD79B798418D47E313D7F439E9A4
:10130000835684000355A40017A700001307C745A0
:1013100097A50000938545488357470063EEF60084
:10132000035667003E9663F9C6001047B387F64040
:101330008607B2972390A7003107E39FE5FCE3807F
:1013400004F0BC44E38D07EE8355A40003558400EC
:101350008297F5B57C41CDD783D5A5000355840090
:101360008297E31E05EC69BF3D479387418963641B
:10137000B7008D8FC10741472E866373B700414682
:101380004206AA8541823E856F60F03A411122C42F
:1013900026C206C617A400001304043D97A400004B
:1013A0009384843F03566400084481450606310453
:1013B000EFF0AFD4E31894FEB240224492444101CE
:1013C000828001118146500081451D4506CE22CC08
:1013D00026CA4AC802C202C42316010097F0FF1FA2
:1013E000E780001017A5000013050546EF70807711
:1013F000014417A900001309A930A1445C00A29779
:1014000083C507004A850504EF70C075E31894FE94
:1014100017C5000013058570EF70D006F2406244D6
:10142000D24442490145056182804111B71700400D
:1014300006C622C403C4470417A500001305053AD5
:10144000EF7040721374F40F93777400FD1793F7E5
:10145000F70F194717A500001305C538636FF7008C
:1014600017A70000130747338A07BA979C43BA9718
:10147000828717A500001305A537EF70A06E17C56A
:1014800000001305A569EF70E07FB24022440145DA
:101490004101828017A5000013050536F9BF17A585
:1014A00000001305A535D1BF17A5000013050536AB
:1014B000E9B717A5000013056536C1B717A50000E9
:1014C0001305C5365DBF17A500001305E53675B7D2
:1014D00001111305800406CE22CC26CA4AC84EC686
:1014E00097F0FF1FE780A0D3EF3070310545371428
:1014F0000040EF30704F8327840A854513050010A4
:1015000093E707202324F40AEF3030358D45130587
:101510000020EF309034EF30D0588D45370504006F
:10152000EF30103E8327840C370704000149D98F20
:101530002324F40CA3010404CD3D17A500001305DA
:101540006527EF702074B53DA3010404EF10E04758
:10155000A3010404EF108007EF10C05C0145A30154
:101560000404EF00F07FA3010404EF10C073A30193
:101570000404752CD12AA3010404EF20B00EA301AA
:101580000404EF10704317A500001305A523A30161
:1015900004040964EF70006F8149B714004013041C
:1015A000F4700145A3810404EF00907B4A85CE8549
:1015B000EF30302999E16378A400EF30F0272A89D1
:1015C000AE89EF20A04AEF20500CE1BF13850181C6
:1015D000828079714ECED149B309350322D426D207
:1015E0004AD052CC56CA5AC85EC606D6001897F4DE
:1015F000FF1F9384A425A69903A989002A8AAE8B8C
:1016000093171900BD07C19B3301F14083A7C9009F
:10161000B28A0A8BB1C30A86D6855E858297635AE1
:10162000050403D6090097A500009385252C17A56E
:1016300000001305E52BEF70E052FD57130104FD88
:10164000B2503E85225492540259F249624AD24A1B
:10165000424BB24B456182804A8681450A85EFF054
:10166000CFA94A8663D32A015686DE855A85EF6064
:10167000900CD147330AFA02DA85D294904403D50C
:101680000400EF3040498147E35A05FA03D60400CD
:1016900097A500009385852517A50000130505274C
:1016A00059BF1DCD411106C683C701859DE317A60D
:1016B00000001306261A97A500009385252317A579
:1016C00000001305651BEF70E0497D55B2404101F4
:1016D0008280214693850199EF60F0050145FDB7B1
:1016E0007D55828019E17D558280411122C406C654
:1016F00083C701852A8485E717A60000130686168E
:1017000097A500009385851E17A500001305C51633
:10171000EF7040457D55B240224441018280AA8548
:10172000214613850199EF60A07E75D52146A285DB
:1017300005454535E34005FE2146A28513850199FF
:10174000EF60607F0145C1BF03C701858147631E0C
:10175000070C011106CE22CC26CA4AC84EC652C476
:1017600056C2EF306003FD576340050A1306C003FD
:1017700081451385C198EFF04F98D5472386F1989E
:1017800089679387075823A8F198A147238AF1987E
:1017900017F4FF1F1304840B17F9FF1F1309C90E59
:1017A00097A400009384841497A900009389491298
:1017B00017AA0000130A8A0D97AA0000938A8A0FBD
:1017C00010444C4003550400EF302078634AA004D5
:1017D00003560400A68539E15285EF70A038104405
:1017E0004C4003550400EF300033635B05020356A1
:1017F0000400A6855685EF70E0365104E31224FDFF
:1018000085472388F1848147F2406244D2444249AB
:10181000B249224A924A3E85056182804E85E1BFE7
:101820001C48E1DF22858297C9BF3E85828093876D
:10183000819C1387819D98C31387A19ED8C313876A
:10184000C19F98C71387E1A0D8C7014582800CC10A
:10185000232205002324050023260500014582805C
:10186000411122C426C206C62A84AE8499C5834784
:10187000E500B384F500C204C1801C40A685228522
:10188000829789476303F50081EC23220400232417
:10189000040023160400B240224492444101828095
:1018A0000347F4005C4023169400BA971CC4E5B7C4
:1018B0002E86814575B7105141055DB7C1676976C0
:1018C0008146FD1705061397060141836364B7003F
:1018D0003E8582803307D50003470700B98F214733
:1018E00013F81700858363050800B18FC207C18311
:1018F0007D171377F70F6DF78506F1B70CC118C583
:101900002306F50050C123200502B685410581B7A5
:101910000C51410571BF5C41411122C426C24AC02D
:1019200006C62A84AE84328991C38297894522856E
:101930005937814709C913E58700B24022449244D0
:10194000024941018280184C93E404F83E8523004B
:101950009700184CA3002701CDB75D7186C6A2C4BD
:10196000A6C2CAC04EDE52DC56DA5AD85ED69547B9
:10197000638FF6000D464537B64026449644064927
:10198000F259625AD25A425BB25B6161828093879C
:10199000F5FF93F7F70F0D47AE8A6362F71883449C
:1019A0003600034746002A89A204D98CC204C184A8
:1019B000939B040193DB0B01638D0B00939617003F
:1019C00017D700001307C7EB369703570700637359
:1019D00077030D46D6854A853D3F2A8493773500A7
:1019E00009811375F50371985D8C0A05137434F041
:1019F000418D59B783491600034726000946A209BD
:101A0000B3E9E900416733077741E34737FD17D76B
:101A10000000130767E73E97034A070017D7000047
:101A20001307C7E5BA9783C7070002CA231D010041
:101A30003EC8230EB100014BB3876901231CF1009E
:101A40008327090030000C084A85829719C1114686
:101A500051B7224641F2050B420B135B0B01E39D8C
:101A60006BFD860463050A0093047B008D8493F468
:101A7000F40F938524004A853D3D45E58327890180
:101A80002380570183278901A3809700814713F79B
:101A9000F70F6361970689473ECA814A854BB38732
:101AA0005901231CF1008327090030000C084A85E6
:101AB00093940A018297C180832789018356C100CC
:101AC000850A63040A0413D734009D880907B39478
:101AD0009B00BA97E20403870700E1849DC2D98C7A
:101AE0002380970093970A01C183E3EA67FB0145CE
:101AF0008147D5BD032789013E972301070085074C
:101B000079B793C4F4FFF98CE1BF13971A00BA9721
:101B100013D786002380E700A380D700E1B70D45E7
:101B2000C1BF0945F1B7397106DE22DC26DA4AD891
:101B30004ED652D456D25AD09547638EF6000D46F3
:101B4000D93BF2506254D2544259B259225A925A55
:101B5000025B21618280AA842E8A91476383D5002B
:101B60008547834A16000347260003493600A20A28
:101B7000B3EAEA00034746002209C20A3369E900D2
:101B8000420993DA0A4113590941139B0A01931937
:101B900009011147135B0B0193D90901639AE7000F
:101BA000638809004167130707F00D46639AE9024D
:101BB00005473ACA3EC8231C610191464E8763948B
:101BC000D700333730019C403000231DE100230E45
:101BD00041010C0826858297114619E122460DC263
:101BE000D28526850D3B2A849377350009811375AC
:101BF000F50371985D8C0A05137434F0418D91B72B
:101C00008D473ECA9C400C0830002685829795453A
:101C10002685553105E59C4C135B8B0093D98900D3
:101C2000238047019C4CA3806701238157019C4C72
:101C3000A381370123822701814765BF0945EDBF95
:101C40001D71A2CC5EDE86CEA6CACAC8CEC6D2C4DC
:101C5000D6C2DAC062DC66DA6AD86ED695472A84C4
:101C6000AE8B63E5D7020D46DE8522856D31F640E9
:101C70006644D6444649B649264A964A064BF25B24
:101C8000625CD25C425DB25D25618280BD47328A72
:101C90006380F50C054D9307B00703475A0061D7E1
:101CA000E916E312D7FC83443A0083464A00A204B3
:101CB000D58CC204C184139B0401135B0B01E304A4
:101CC0000BFAE3E267FB914693171B006315DD00F7
:101CD00093077B008D87E318F7F803491A008347C1
:101CE0002A00094622093369F900420913590941BA
:101CF00093190901C16793D90901B3876741E3C506
:101D000037F78547930C6A006AC83ECA230E7101F3
:101D1000E68D014C1147B3878901231CF100631F35
:101D2000ED0293573C00C207C183D29783C7670077
:101D300093767C00B3D7D740858B231DF1001C40E0
:101D400030000C0822858297114705C1114629BF32
:101D5000114D9307007B91B7568C75BF83C70D005B
:101D600083C61D00A207D58FC9BF2246E31E06EE1B
:101D7000930A1C00C20A93DA0A01890DE31E5BFD77
:101D80008D473ECA014B914DB3876901231CF10079
:101D90006316BD0593573B00C207C183D29783C723
:101DA000670013777B00B3D7E740858B231DF100D5
:101DB0001C4030000C082285829793071B00C20745
:101DC000C183890C631A6C0195452285ED348147E6
:101DD00009CD13E5870061BD3E8B7DB783C70C003D
:101DE00003C71C00A207D98FD1B7184C93D989001B
:101DF00093DA8A0023007701184C3E85A30037014F
:101E000023012701184CA30157012302970085B530
:101E10005D7186C6A2C4A6C2CAC04EDE52DC56DAC6
:101E20005AD85ED662D466D26AD09D476382F602E3
:101E30000D46D534B640264496440649F259625AB6
:101E4000D25A425BB25B225C925C025D616182802D
:101E5000034A160083472600054C220A336AFA001B
:101E6000420A135A0A41931B0A011C4193DB0B01DE
:101E7000AE8A034D460083493600834C6600034911
:101E80005600230EB10062C802CA231C7101231D33
:101E9000010030000C08AA84829719C1114619A0CC
:101EA00022460DC2D6852685BD342A849377350017
:101EB00009811375F50371985D8C0A05137434F06C
:101EC000418D8DBF89473ECA9C40A20930000C0855
:101ED000B3E9A90126858297C209220993D909414C
:101EE000336999018357C100139B09014209135BB0
:101EF0000B011359094113C7F9FFB377FB0033777F
:101F0000E900D98F231DF1009C4062CA30000C0803
:101F10002685829741F5224651F68D473ECA9C4060
:101F20000C083000268582979D452685EFF0BF98E6
:101F30000DED9C4C93DB8B00135B8B0023805701D2
:101F40009C4CA3807701238147019C4CA3816701AE
:101F500023823701984C93170901C183A183A302FF
:101F6000F700230327018147B9B70945EDBF2E8844
:101F70008348C50083C50500B286814713970701D2
:101F800041836365170105466FF0FF981845139666
:101F900037008507329703460700E311B6FE032397
:101FA0004700428602839387C6FFC207C183130797
:101FB000C00F6368F70C011152C4138AE6FF4EC6C6
:101FC000AE8993150A0122CC26CA4AC806CE56C24B
:101FD0003289AA84C18132854A9A3684834A0600AE
:101FE000EFF0DF8D83471A0003470A00A207D98F5D
:101FF000631EF50863860A001305D002639F590328
:10200000930730107514239FF4001376F40F930593
:1020100019002685A93F9377350085E3935725005E
:1020200093F7F70399EB83D7C401014491C7639FEA
:102030000A002685EFF0DF8D2285F2406244D2440B
:102040004249B249224A924A056182801387C7FFFA
:10205000420741839306C00F13654400E3EFE6FC9B
:10206000C8489385E7FFB304B500C20523003501D6
:10207000C181EFF0BF842380A4002181A380A4004C
:1020800065BF05450A0513651500828021450A05CF
:10209000136515005DB7B14763EAA70097A7000075
:1020A000938787880A053E950841828017A500001E
:1020B0001305C58A828089E52322050001458280B7
:1020C0009307001063F6B7002322050009458280BC
:1020D0001306861550C1DDB79C4123200600094731
:1020E00008516383E7026367F7000547638CE700E5
:1020F000014582801147638BE7002147E39AE7FEA1
:102100006FE01FFA6FF00F916FF08F846FE0FFECBC
:102110004111956706C622C4938707B063EEA700F6
:102120002A84EF30400895473305F5023355850280
:10213000B240224441018280EF30E006B7470F00F1
:10214000938707243355F5029307E02E3305F502F4
:10215000C5B7411106C622C4B727004003C7070010
:102160008146118B01CB03C7070085461377B70F54
:102170002380E700138401A2384089476300F706F3
:102180006361F7048D476303F70689C6085449372E
:10219000EF30600B784885476311F702B72700409E
:1021A00083C70700918B89E708549D37EF30A0095A
:1021B00083C711858507A388F184B2402244410179
:1021C000828023A0F1A67C4823A601A43307F40053
:1021D0008507230CA70423AAF1A645BF23A601A4C3
:1021E0007C481307F00FE342F7FACDB723A601A40A
:1021F00085472388F1A451BF411122C48D452A840B
:102200001305000206C6EF205065371700408327EC
:10221000870A8545414593E707022324F70AEF2003
:10222000D063EF30600E0854EF30E00A0145EF3024
:10223000E01005459545EF300012B2402244B7E763
:1022400000E0114723A2E710014541018280FD57BC
:1022500035C56355B006371700408327C70C4111B9
:10226000B706040006C6D58FC2052326F70CC18128
:10227000EF300011374700408347B7C093F7F70F9F
:10228000E5FF834757C093F70704FDD797A50000E4
:102290009385459C17A50000130585A3EF60900C5E
:1022A000371700408327870CB240B7060400D58F4C
:1022B0002324F70C81473E85410182803E85828040
:1022C000011122CC2A84280006CE02C402C6EFF0F7
:1022D0004FBD130600268145138501A2EFE0EFE113
:1022E000D5472382F1A4A24723A4F1A497070000B5
:1022F0009387C7DE23A0F1A219C44146A2851385A6
:1023000041A6EF505043138401A297C7000083C732
:10231000E75717E7FF1F1307275797060000938615
:10232000C6D9014697050000938545DB2285EFF06D
:10233000EFDC9377350091C77D55F240624405612B
:10234000828009819377F5037D55E5FB228523A0E3
:1023500081A45D350145D5B7B337A000A388F1A4AA
:1023600009CD411106C6EF20304DB240938701A23E
:1023700088DFCCDF01454101828001458280011167
:1023800006CE2AC6A3880184EFF04F80EFE05FE01D
:10239000EFE0DFCA32452D37635E0500F24097A5B6
:1023A00000009385E59017A500001305A590056131
:1023B0006F60407BB727004003C72700C1661367E3
:1023C00017002381E70037E700E02320D71003C779
:1023D00007001377B70F2380E700F2400561828082
:1023E000411122C4138401A2384006C626C2914777
:1023F000631FF708EF2050441306803E8146EF200C
:10240000B07A23ACA1C683C701A5D9E7835644059A
:10241000138681A783C541A42285713609819374EF
:10242000F50399E483D5C1A3B1C948480D35B9A0D6
:1024300026859531AA86268697A50000938545872F
:1024400017A5000013058582EF60C07197A50000F5
:102450009385058617A5000013058583EF608070BE
:10246000035644059146938581A717A500001305DF
:102470002584EFE03FA9AD47E396F4FA238801A451
:1024800023A601A423AA01A6854723A0F1A6B24052
:10249000224492444101828017A500001305058063
:1024A000EF60406CE1BF83C711A585CB938701A284
:1024B000885FCC5F411106C6EF20B03891E5856793
:1024C000938777BB63F9A700814513056008A3884C
:1024D00001A4EFE09FCCB240410119B7371700408B
:1024E000ADC18327870CB7060800D58F2324F70CCE
:1024F0002147B717004083A6C70A93E6160023A614
:10250000D70A93168501E18663D5060483A6870A58
:1025100093E6260023A4D70A83A6870A7D1706051B
:1025200093E6160023A4D70A1377F70F1375F50F58
:1025300079F303A7870CB7060800558F23A4E70C8F
:1025400082808327C70CB7060800D58F2326F70C97
:1025500045B783A6C70A93E6260023A6D70A6DBF10
:1025600001E583C72185B5C3011122CC26CA52C417
:1025700006CE4AC84EC6938401C81304000B130A42
:10258000800B81452285993F81450145813F8145E9
:102590004145A937A6891309000803C509008545E7
:1025A0007D192D3FA109E31A09FE05041374F40FE8
:1025B0008504E31844FDF240624423890184D24437
:1025C0004249B249224A05618280828001471386CE
:1025D00001C8930500082145B306E6008147850739
:1025E0002380060093F7F70FA106E39AB7FE0507CD
:1025F000E314A7FE85472389F184014595B7931716
:102600008501E18763CD07029307F00363E9B70211
:1026100013F775008547B397E7000E0513D735000C
:10262000938501C8AA95BA9593F7F70F03C70500DC
:1026300001CAD98F2380F50085472389F1848280E0
:1026400093C7F7FFF98FFDB71D71A2CCD2C462DC2E
:1026500066DA86CEA6CACAC8CEC6D6C2DAC05EDEE2
:102660006AD86ED6A1472A8CAE8C13DA16001944AC
:10267000638DF60013F476003334800093D7360070
:102680003E9433048A021374F40F930406FE93F409
:10269000F40F93074002B387F402B1491946E28B65
:1026A000014BA14A3EC6B3893403939744003EC808
:1026B000933717003ECAB384C4021376FB0F6361DD
:1026C0008602F6406644D6444649B649264A964AAA
:1026D000064BF25B625CD25C425DB25D256182803A
:1026E0006391560733069B0097A700009387C79511
:1026F0003E96834D060013898C001379F90F668D81
:1027000013F61D003DCE3A86EA855E8536CE3ACC7C
:10271000FD356247F24693081D0013FDF80F93DD67
:102720001D00E31FA9FD93871B0093FBF70F638830
:10273000560133868B4163144601CA8CE28B050B2C
:10274000ADBF31466399C60033063B0197A7000031
:10275000938707B271BF4146639AC600C2473306EA
:10276000FB0097A700009387E7F759B76146E39A04
:10277000C6F4B2473306FB0097A70000938787553E
:1027800085BF5246EA855E853ACE36CC8D3D72478E
:10279000E24651B7797126D24AD052CC56CA5AC8AD
:1027A00062C43E8B06D622D44ECE5EC6A147AA8412
:1027B0002E8AB28A3A8C09496303F700014993577C
:1027C0001C00FD163E9913F4F60F9309F00FA94B68
:1027D00063183405B250225492540259F249624AA5
:1027E000D24A424BB24B224C45618280330676037B
:1027F000FD1793F7F70FE39B37FF5A87E28633D62F
:10280000CA023376760305E2130600032685D285D5
:10281000CA947D14153D93F4F40F1374F40F4DBF57
:10282000A2870546F1B713060603CDB71D71A6CAE8
:1028300093F4760093D73600B3349000BE94CEC69E
:1028400093098004B384D402931796003EC693176D
:1028500076003EC893175600A2CCCAC8D2C4D6C2CE
:10286000B309360366DA6AD86ED686CEDAC05EDE83
:1028700062DC2A8AAE8A3ECA2A840149979C0000FB
:10288000938C0C50179D0000130D8D45933D170040
:1028900013160901418263619602F6406644D644EC
:1028A0004649B649264A964A064BF25B625CD25CC0
:1028B000425DB25D25618280C147639BF604D247C9
:1028C0003306F9006A96034C060013838A00137BD3
:1028D000F30FD68B13761C0025CE3A86DE85228533
:1028E00036CE3ACC293B6247F24613881B00937BD5
:1028F000F80F135C1C00E31F7BFD05041374F40F39
:1029000033064441630FD604568B0509DA8A49B76A
:1029100061466396C6003306390166966DB71306A5
:102920000002639BC600C2473306F9009797000078
:10293000938787493E9641BF13060004E39FC6F480
:10294000B2473306F900979700009387E74FDDB74A
:102950006E86DE8522853ACE36CC55317247E24608
:1029600069B752845DB741119145054506C622C439
:10297000EF20A06E91450945EF20206E37140040EE
:102980008327840A91453705100093E72700232405
:10299000F40AEF20E0768327840C37071000914576
:1029A000D98F2324F40C37050800EF2060758327A6
:1029B000840C37070800B240D98F2324F40C22443A
:1029C0008D45114541016F20A073411106C622C4F7
:1029D00026C237140040413F8327C40CB7041000BF
:1029E0001305800C93E747002326F40C0327C40C3F
:1029F000458F2326E40CA301040497E0FF1FE78022
:102A0000E09FA30104048327840C81451305E00A99
:102A1000C58F2324F40CEFF07FAC81450145EFF026
:102A2000FFAB81454145EFF07FAB814513050004C5
:102A3000EFF0DFAA814513051008EFF03FAA8145AA
:102A40001305F00CEFF09FA981451305000AEFF084
:102A5000FFA881451305000CEFF05FA88145130521
:102A6000600AEFF0BFA781451305800AEFF01FA7AA
:102A700081451305F003EFF07FA681451305300D66
:102A8000EFF0DFA581450145EFF05FA58145130516
:102A9000500DEFF0BFA4814513050008EFF01FA40F
:102AA00081451305900DEFF07FA381451305100FAD
:102AB000EFF0DFA281451305A00DEFF03FA28145A5
:102AC0004945EFF0BFA181451305B00DEFF01FA1FF
:102AD000814513050004EFF07FA081451305000236
:102AE000EFF0DF9F81450945EFF05F9F81451305BA
:102AF000D008EFF0BF9E81455145EFF03F9E8145E4
:102B00001305400AEFF09F9D81451305600AEFF021
:102B1000FF9C2244B240924481451305F00A4101D2
:102B20006FF0DF9B41110547C1460146C145014594
:102B300006C6ED390547C1460546C1454945FD3143
:102B40000547C1460946C14513054002C531054741
:102B5000C1460D46C14513056003C939B24005475A
:102B6000C1461306A003C1451305800441016FF05F
:102B7000BFAD411106C622C423AA01842A84EF20D6
:102B80008062B7470F00938707243355F50233055A
:102B90008502EF20806C138741851C43FDDF3727BA
:102BA000004083470740014593F7B70F2300F740E4
:102BB000B240224441018280411122C426C206C68D
:102BC0004AC01304C003B714004083A7440C1397F2
:102BD0003701634707020144B71400401309000F8F
:102BE00083A7440C13973701635D07029307B00373
:102BF000014563C2870217B500001305E5EC09A87B
:102C000005457D14BD3771F017B50000130505E8C3
:102C1000EF6040070545B240224492440249410119
:102C2000828029452904B137E31C24FB17B5000035
:102C3000130585E7F1BF41118D45056506C622C420
:102C400026C237140040EF20A04B0327C40C856434
:102C50001305401F458F2326E40C213F8327840C56
:102C6000B2408545C58F2324F40C22449244056567
:102C700041016F20E048411106C622C46D3F2D3F3F
:102C80009377F50F2A8499C717B50000130505F946
:102C9000EF50507F1305000FE93D1375F40FB2405C
:102CA000224441018280411106C6372700408347F4
:102CB000274085661305400693E717002301F74078
:102CC000B7E700E03707000123A0E71037170040FF
:102CD0008327870CD58F2324F70C613D8D4505652F
:102CE000EF200042B240410179B741114AC08D4501
:102CF0002A89056522C426C23714004006C6EF2083
:102D000020400327C40C85641305C003458F232688
:102D1000E40C630B09003D45A93D8327840C130592
:102D20002003C58F2324F40CA935371700408327CF
:102D3000870C22448566B24092440249D58F2324F1
:102D4000F70C0945410135B5411122C426C206C61A
:102D5000AA8421447D1413F514001374F40F713701
:102D600085846DF8B2402244924441018280411131
:102D70008D45056506C622C426C24AC0B714004068
:102D8000EF20003883A7C40C05690945B3E7270184
:102D900023A6F40CF93B83A7840C85450565B3E7AE
:102DA000270123A4F40CEF20A0351545D93303A443
:102DB000440C3374240119E81145653B83A7440C86
:102DC00013973701634507007D5429A00544130577
:102DD000C00345332285B240224492440249410156
:102DE0008280411122C426C206C6A1440144058046
:102DF000BD3F09C5136404F81374F40FFD1493F474
:102E0000F40FF5F42285B2402244924441018280BD
:102E1000411106C622C4A13F2A84913F06051375BD
:102E2000E51F418DB24022441375F50F41018280A8
:102E3000011197B70000938767C426CAAA84884304
:102E400022CC4AC84EC606CE054497B900009389E5
:102E500029BE1D4993F7140099C793172400CE97F4
:102E60008C43EF40A02205048580E31524FFEF404A
:102E7000305D97B700009387E7C09043D443EF30AD
:102E8000605AEF40B066F2406244D2444249B249CF
:102E900005618280011122CC26CA4AC84EC6AA8486
:102EA00006CE01441305000097B90000938909BAC2
:102EB000214993F7140099C793172400CE978C43A8
:102EC000EF40C01C05048580E31524FFF2406244F6
:102ED000D2444249B24905618280011122CC26CAFE
:102EE0004AC84EC656C25AC006CE52C4AA8917B99D
:102EF00000001309A9B501449D44054BFD5A032A5E
:102F0000C901CE855285EF406057634CA000B317CE
:102F10009B004E85D2855D8CEF4050081374F40FF2
:102F2000AA89FD147119E39C54FD2285F240624484
:102F3000D2444249B249224A924A024B05618280F8
:102F4000011106CE22CC26CA4AC84EC656C25AC065
:102F500052C4EF40F04E97B700009387A7B190435B
:102F6000D44317B900001309A9AC9544EF30804B46
:102F7000EF40D05797B70000938747B08C43014488
:102F8000054BEF40B001AA89FD5A032A8901CE857D
:102F90005285EF40A04E634CA0004E85D285EF4095
:102FA000E07FB3179B005D8CAA891374F40FFD14A6
:102FB0007119E39C54FD2285F2406244D244424997
:102FC000B249224A924A024B05618280011106CE23
:102FD00022CC26CA4AC84EC62E89B289EF40E003E9
:102FE00097B70000938787BB9043D443EF20506886
:102FF00097B70000938707BB9043D443EF30100E80
:103000002A86AE86EF20C0732A844E85AE84EF40B8
:1030100030432A86AE862285A685EF30A0402A84DA
:103020004A85AE84EF40D0412A86AE862285A685A9
:10303000EF200071EF40904BF2406244D24442498D
:10304000B249056182808146AA9581476314B50023
:103050003E85828005050347F5FFB98F214733C6BA
:10306000D700058A858309C693C7C7F893F7F70F7A
:103070007D171377F70F85827DF3C9BF1171EAC9F8
:10308000130630062A8D8145E808A2DDA6DBCAD9E1
:10309000DAD1EEC786DFCED7D2D5D6D3DECFE2CD1A
:1030A000E6CB0149EFD07F8581440144054BA14D1A
:1030B000EFF07FBC631005104155931C3900693156
:1030C000EA9C930BC101014A131C3A00137CFC0FCC
:1030D000DE89854A353B0D8989478580631FF50464
:1030E0000145EFF09FC023800900850AA5478509A7
:1030F000E392FAFEB3874C0123809700050AA10BE7
:10310000E314BAFD9C01A29783C7C7F9050989C7D3
:1031100093074006E31EF9F81375F90FFE506E543D
:10312000DE544E59BE592E5A9E5A0E5BFE4B6E4CC3
:10313000DE4C4E4DBE4D11618280631A650105451E
:10314000EFF0BFBA93E404082380690179BF51FD11
:103150009C01A29703C7C7F9B3075C0193F7F70F68
:103160006371F7023EC60504EFF03FB89C0113748B
:10317000F40F33878700B24723800900230EF7F846
:10318000ADB763FCE70003C5090093177500DD8C3C
:1031900093F4F40FEFF07FB589BFE398E7F40545AA
:1031A0007D14EFF09FB493E4040823806901137445
:1031B000F40F25BF01459DB779711385411406D6DB
:1031C00022D44ECE52CC56CA5AC85EC662C426D24B
:1031D0004AD06D35AA85AA8917B50000130585A0C8
:1031E000EF505018014417BA0000130AAAA1938A9D
:1031F000011417BB0000130BEBA1A14B17BC00007F
:10320000130CCC91634E3401B250225492540259A3
:10321000F249624AD24A424BB24B224C456182800B
:10322000A285528593143400EF50D013D6940149EF
:1032300083C544005A850509EF50D0128504E3196F
:1032400079FF6285EF50102405046DBF011126CA75
:103250004EC606CE22CC4AC8B7170040A381070449
:10326000AA89AE84EFF03FA115E92A841305500521
:10327000EFF09FAD8E042149B3079400CE970385EC
:1032800007000504EFF05FACE31824FF0545F240AA
:103290006244D2444249B249056182800145C5BFBA
:1032A000411122C42A841385411406C626C2793FDF
:1032B0001305B0FAEFF05FA99304F40063189400CB
:1032C000B240224492440545410182800504030531
:1032D000F4FFEFF07FA7DDB7411122C42A841385E4
:1032E000411406C626C29D371305B0F8EFF0DFA5DE
:1032F0009304F40063189400B240224492440545BC
:10330000410182800504EFF0DFADA30FA4FEDDB71D
:10331000011126CAAA840A8522CC06CE4AC86D3F6E
:103320002A8411CD0349E100B9450A85293B631F71
:10333000A9008347910093F7F7032380F4002285C7
:10334000F2406244D2444249056182800144C5BFD3
:10335000011122CC2A841305F10006CE553F034506
:10336000F100EFF0FFAC08C0F240624405618280DA
:10337000011126CAAA840A8522CC06CE4AC8A93FD2
:103380002A8405C90349E100B9450A85EFF0BFCB9E
:103390006318A902034791008D4719833387E740DB
:1033A0009307F00FB3D7E74003474100F98F23801D
:1033B000F4002285F2406244D24442490561828091
:1033C0000144C5BF011122CC2A841305F10006CEA9
:1033D00045370345F100EFF0FFAB08C0F24062440F
:1033E00005618280011122CC2E84B28506CE32C6C0
:1033F000D13F32462285B285A13FF2406244054565
:1034000005618280797126D2AA840A8522D44AD0A5
:1034100006D64ECE2E89C9352A841DC18349E100C6
:10342000B9450A85EFF03FC26394A9020345310014
:103430009D88CA856199458DA301A1000A858D35B6
:103440002285B250225492540259F2494561828039
:103450000144FDB779714AD04ECE2E89AA89B28532
:103460000A8522D426D206D652CCB284B5352A8417
:1034700015C5034AE100B9450A85EFF0DFBC6318C2
:10348000AA02834591000A852302310193F5F503D1
:10349000B3E52501A304B100A68519352285B250F4
:1034A000225492540259F249624A45618280014491
:1034B000F5B7011197A700009387C76D2EC68C43FF
:1034C00006CEEF30B03CEFF05FA1937705FE3246B9
:1034D000814589CF937705FC9305000481CB9377D1
:1034E00005F89305000C99E393050008A537F24011
:1034F000054505618280797126D2AA840A8522D485
:103500004AD006D64ECE2E89C13B2A841DC183499E
:10351000E100B9450A85EFF01FB36394A902834720
:103520009100CA850A8593F707FCDD8CA3049100FE
:10353000853B2285B250225492540259F24945618A
:1035400082800144FDB7411106C622C42E84EF409B
:10355000206F97A70000938767639043D443EF20C1
:10356000201EEF40A078EFF0BF9DA2856937B240E2
:103570002244054541018280011106CE22CC26CA93
:103580004AC84EC632842E89AA8997A40000938423
:10359000A460EF30B02F8C40EF301077A285113F40
:1035A000CE854A85EF40801F8C40EF30F075A285B4
:1035B000593FF2406244D2444249B249054505614F
:1035C0008280411122C42A841385411406C6EFF07B
:1035D000FFC71305E004EFF02FF703050400EFF039
:1035E000AFF603051400EFF02FF603052400EFF00B
:1035F000AFF5B24022440545410182804111AA85C0
:103600001385411406C6EFF07FC4B71700401305B9
:103610006006A3810704EFF02FF3B2400545410196
:1036200082804111AA851385411406C6EFF01FC29E
:1036300013054004EFF04FF1B2400545410182808F
:103640004111AA851385411406C6EFF03FC0B71794
:1036500000404145A3810704EFF00FEFB24005455C
:1036600041018280411122C42A841385411406C677
:1036700026C2EFF0BFBDB7170040A38107041305B2
:10368000E0FBEFF06FEC9304940063189400B240F9
:10369000224492440545410182800504EFF06FF415
:1036A000A30FA4FEDDB7797126D24AD0AE842A8951
:1036B000B285480022D406D64ECE6D372A840DC17D
:1036C0008349C100A1454800EFF0FF976392A9022A
:1036D0008347B1002300F9008347A1002380F40051
:1036E0002285B250225492540259F2494561828097
:1036F0000144FDB7797122D44AD02E842A89B2853B
:10370000480026D24ECE06D652CCB289A13FAA841A
:103710000DC5034AC100A1454800EFF0DF926317D1
:10372000AA028347A100CE852800F19B5D8C0D98ED
:1037300033648900230581006935B25022542685FF
:1037400002599254F249624A456182808144F5B738
:10375000797126D24AD0AE842A89B285480006D62D
:1037600022D44ECE013711E901442285B2502254B1
:1037700092540259F24945618280B7170040A381F3
:1037800007048349C1002A84A1454800EFF0BF8B9C
:10379000E39CA9FC8347510003474100A207D98F4E
:1037A0002310F9008347710003476100A207D98FF6
:1037B0002390F4005DBF411122C42A841385411473
:1037C00006C626C2EFF09FA81305C0FDEFF0CFD7C5
:1037D0009304640063189400B24022449244054567
:1037E000410182800504EFF0CFDFA30FA4FEDDB717
:1037F000011126CAAA84280022CC06CE6D3F2A8455
:103800001DC1B7170040A38107048345910083477A
:10381000810017A500001305A543A205DD8D2390A7
:10382000B400EF5020342285F2406244D244056156
:103830008280011122CC26CA13840114AA840E05A9
:103840004AC806CE4EC63309A4008349B900110503
:103850009D452295EFF02FFF639FA902894717A589
:1038600000001305A52B23A0F114EF50A041A6855D
:1038700017A500001305453EEF50C02E0C406244D2
:10388000F240D2444249B24917A500001305453F12
:1038900005616F50202D639409028347A90085E3D9
:1038A000854717A500001305652723A0F114EF50E5
:1038B000603DA68517A500001305C53D75BFF24004
:1038C0006244D2444249B24905618280011126CA4C
:1038D000AA84480022CC06CE4AC8EFF0BFD82A847A
:1038E0000DC10349C100A1454800EFF0CFF56311B8
:1038F000A9028347510003474100A207D98F2390B3
:10390000F4002285F2406244D2444249056182803B
:103910000144C5BF011122CC06CE26CA2A84231732
:103920000100EFF01FD025CD3D45EFF08FA4A2851B
:103930001305E100613F0315E100EF40002497A764
:1039400000009387A7128C43EF30103CAA84EF400D
:10395000202F2A86AE8617A500001305A52CA28568
:10396000EF50402017A500001305451BEF50803194
:103970002685EF40201B93150501C1810145EFD03D
:10398000EFFBB7170040A38107041305E03DEFF0FC
:103990004F9EF2406244D24405450561828017A5DE
:1039A00000001305252AEF50E01BE1BF411197A746
:1039B00000009387A72026C2AE848C4322C42A84A9
:1039C00026854AC006C63289EF30502B634CA002D0
:1039D000A2852685EF3030226356A00293050000B1
:1039E0002285EF305021634F0500A2852685EF30F8
:1039F000F05A97A700009387A71C8C43EF3010283C
:103A00006353A00297A500009385C51B17A500006E
:103A10001305051DEF5000150145B24022449244A4
:103A20000249410182804A86A6852285EFF0DFB4F3
:103A30004A869385C14713858147EFF0BF9A0545B4
:103A4000E9BF93F775000111937535003E8506CEE9
:103A500022CC3284EFF01FCA22866C002800EFF0DF
:103A60009FC4F2406244014505618280597113850B
:103A70004114CAD0CECED2CCD6CA86D6A2D4A6D233
:103A8000DAC8DEC6E2C4EFF06FDFAA8902DE138A6D
:103A9000011497AA0000938A6A0413894146F257D9
:103AA00063CE3701B650265496540659F649664AF5
:103AB000D64A464BB64B264C656182807255B71488
:103AC0000040EFF01FD77256A14509459D3F0327DF
:103AD0000A008547A38104046317F724725683A55F
:103AE0000A0013050000D93572549385C147138528
:103AF00081472286EFF01F8FA2850545EFF09F904A
:103B00002285EFF0FFB36305050E3D45EFF06F86AC
:103B100022869305A1032818EFF09FC335C503152E
:103B20008103EF408005EF40A01197A70000938725
:103B3000E7079043D443EF20F00E97A70000938748
:103B400067079043D443EF10B03FEF40201A03269D
:103B50008901832549012A8B0355A103EFF00FC783
:103B6000A3810404EF40C00D2ACC5A852ECEEF402D
:103B7000200D6247F2472A86AE8617A5000013057E
:103B800065F6A285EF40107EB7140040A3810404BF
:103B90001305E03DEFE0FFFDA381040472541545D9
:103BA000A285EFF03F862286A381040493053103AA
:103BB00013052103EFF03FAF2285A3810404EFF04A
:103BC000FFA315ED17A500001305C5F4EF50800BFA
:103BD00037140040A30104041305E03DEFE07FF932
:103BE000A3010404A3010404F25785073EDE45BD8A
:103BF00017A5000013050505EF40D07671B7A38126
:103C000004043D45EFE0FFF622869385C147138506
:103C10008147EFF02FFD228693053103A381040431
:103C200013052103EFF03FA89305A103A38104042A
:103C300022862818EFF0DFB1A285A381040448187A
:103C4000EFF01FBB19E517A50000130565EDEF4068
:103C50007071B71B0040A3810B0483244901032C1E
:103C600089010355A103A6856286EFF02FB62A8B42
:103C7000035541036286A685EFF04FB5A3810B047F
:103C800003584103AA845A8542D6EF30707B83469D
:103C900031030356A1032AD036C683462103268565
:103CA00032CC36C42ED2EF30B07992573258025708
:103CB00062462AC02EC217A50000130565E7A2853B
:103CC000EF40506A97A70000938787E180435A85A9
:103CD000A285EF3040726356A004A2852685EF309E
:103CE00080716350A00417A50000130525E9EF407B
:103CF0007079054417A50000130545E2EF40907860
:103D00008547414785462286C14513052005EFE0DA
:103D10007FA80145EFE0DF84A2850145EFD06FB3B6
:103D200045BD0144C1BF7255EFF0DFBEA38104045D
:103D300065BD011106CE22CC130760082E86630DE7
:103D4000E508636BA70013070008630CE502F24067
:103D5000624401450561828041679306A7FF630ABB
:103D6000D5006D17E315E5FE93C5F5FFC205C181CA
:103D700031A09965938555AAE30BB6FCEFD0EFC14E
:103D8000F9B799CD85476382F50297A50000938521
:103D9000E5F217A500001305E5F2EF40B05C45BF62
:103DA00097C0FF1FE780405D5DB72800416402C4F3
:103DB00002C6EFD01F8F1305D4FDEFD08FC142058F
:103DC0002AC41305E4FDEFD0CFC0A2473E952AC414
:103DD0002800EFD03F91A5BF8D6793876773054596
:103DE0006384F500ADF50145EFE00FD78DB7011104
:103DF00006CE22CC02C002C202C402C6EFD00FFD22
:103E000097070000938727F32A840A853EC2EFE0D4
:103E10000FD789450145EFD04FB883552400314570
:103E2000EFD0AFB7835544003545EFD00FB783557A
:103E300084000545EFD06FB6835564000945EFD087
:103E4000CFB5EF10A018A145EFD00FD2996541650D
:103E50006915938555AAEFD04FB4F24062440145ED
:103E60000561828083C7818599EF411106C623AC25
:103E7000018423AE0184A53FB2408547238CF184A1
:103E800001454101828001458280411106C622C45C
:103E9000EFE06FE1EF10401A1306803E8146EF100D
:103EA000A05093878185DC436383A7021304803E7F
:103EB0003354850223AEA184394593550401EFD0D4
:103EC000CFAD93150401C1813D45EFD00FADB24098
:103ED00022440145410182809307C00F6300F5042D
:103EE00063ECA70097A700009387C72715C597A77E
:103EF00000009387A7250DA01307E00F97A70000E8
:103F000093870727630AE5001307F00F97A70000C0
:103F100093874724E31DE5FC3E85828097A7000038
:103F20009387C723D5BF797122D451462A849775C8
:103F300000009385A57B680006D6EF30D07F03464E
:103F40000400930544006800EFC07FED8347140030
:103F5000B25022543385A740133515004561828045
:103F6000AE8713881700411193158500C29506C6C8
:103F70000D486371A80297A500009385A51717A5A2
:103F8000000013056517EF40F03DFD57B2403E8538
:103F900041018280B69785071307F00F637BF70016
:103FA00097A500009385051517A500001305451674
:103FB000D9BF2D4597C0FF1FE7808052814779D533
:103FC00097A500009385051317A500001305451656
:103FD0005DBF8D4763E8B708411122C413943500D3
:103FE0002A940347A4004AC006C626C29307F00FCE
:103FF0002A8901456304F7042E86AE8417A50000C4
:104000001305050C97A500009385C50EEF4090356C
:1040100093060010014693958400254597C0FF1F25
:10402000E780004C15C197A500009385A50C17A546
:1040300000001305650AEF40F0327D55B24022447E
:104040009244024941018280FD5723170400231640
:1040500004002305F4008357290001458507231137
:10406000F900E9BF7D558280797106D622D426D227
:104070004AD04ECE52CCA307B1008D4763E9A706C4
:104080009387011013193500B38927012A8403C5CA
:10409000A90013FAF50FBE84014763054509EFF047
:1040A000BFE32AC45285EFF03FE3A2462A87228667
:1040B00097A500009385050417A500001305C50BFF
:1040C000EF40502A85461306F100931584002945D8
:1040D00097C0FF1FE780C04009CD97A500009385DA
:1040E000650117A500001305A504EF40B0277D5713
:1040F00015A883C7A9001307F00F639EE70203D733
:10410000211001C77D172391E1100347F1009307A8
:10411000E00F6314F70023928110B38724012385F5
:10412000E7000147B250225492540259F249624AC0
:104130003A85456182801307E00FE398E7FC9147D9
:104140002392F110D9B78D4763ECA7020E051387B0
:1041500001102A978347A7009306C00F0145638289
:10416000D70263E6F60013B517007D15828093062B
:10417000E00F6389D7001307F00F01456383E70061
:104180007D5582808357E7001305F00F1D8D8280D7
:104190000D47AA87AA866369A702138601100D48F6
:1041A0001397370032970347A7003E85630FB70088
:1041B0000147638407011387170093170701C18321
:1041C000E390E6FE114582807D5582800111938740
:1041D00015004AC8131985003E9906CE22CC26CA7E
:1041E0004EC652C48D4763E7A704B695850593076D
:1041F000F00F36847D5563E7B704B289130A0010C7
:10420000A28463748A0093040010C204C180A6864D
:104210004E86CA85294597C0FF1FE780602C09CDCF
:1042200097A50000938505ED17A50000130545F03F
:10423000EF4050137D5539A0058C420441802699EA
:1042400061F00145F2406244D2444249B249224AF7
:10425000056182808D4763E5A71403D6250001110F
:10426000C1671307F6FF420726CA4EC606CE22CC08
:104270004AC852C456C24183F517AE89AA8463F670
:10428000E70297A500009385E5E617A50000130552
:1042900025F1EF40300D7D55F2406244D244424951
:1042A000B249224A924A0561828093870110931A8B
:1042B0003500338457010347A4009306C00F3E8A9C
:1042C0007D55E30BD7FC63ECE60079D797A500009A
:1042D000938545E217A50000130545EE5DBF9307E2
:1042E000E00FE365F7FE83C6050003C7150003581A
:1042F000E40097A500009385E5DFA68717A50000D9
:104300001305C5EDEF40100603C909008355E4000D
:104310004E861109CA862685EFF05FEB635B0500C8
:1043200097A50000938505DD17A50000130545EF4F
:104330008DB78357E400035704019306F00FCA9723
:10434000C2073A990347A400C1832317F400231836
:104350002401BA856314D7009305E00F9306F00F8C
:10436000B387F6408D4663E4F6009305C00F630003
:10437000B7022685EFF05FCF635B050097A50000CD
:10438000938545D717A50000130545EB19B7B3076B
:104390005A0103D7C700014505072396E700EDBD85
:1043A0007D558280797106D622D426D24AD04ECE4F
:1043B00002C605E217A600001306869397A5000023
:1043C000938545D317A5000013050594EF40807928
:1043D0003DA02A89035506008D47328463F3A70266
:1043E0002A8697A600009386A69097A5000093853D
:1043F00065D017A500001305A592EF40A0767D5566
:1044000035A093143500CA9483D7C4009DE717A63E
:1044100000001306E68D97A500009385A5CD17A58E
:1044200000001305E591EF40E0730145B2502254BE
:1044300092540259F24945618280AE898355240025
:1044400091467000EFF0DFB1635F050017A6000032
:104450001306068A97A500009385C5C917A5000015
:1044600013050590A5B70356E100630336033287B1
:10447000CE8617A600001306A68797A50000938591
:1044800065C717A500001305A58FEF40A06D85BF78
:10449000835604000357240097A50000938585C523
:1044A00017A5000013054591EF40C06B835524000C
:1044B000035504009146700023170100EFF01FD14F
:1044C000635F050017A600001306868297A500000B
:1044D000938545C217A5000013058591C5BD83D7F7
:1044E000C4008DEB03C7A4009307C00FE31FF7F2CE
:1044F000835504004A85EFF0DFADE35805F297A538
:104500000000938525BF17A5000013056590EF40B7
:104510006065F5B5FD17C207C1832396F400E396E5
:1045200007F0C9B71307F5FF4D714207C167232C88
:1045300041132326111423248114232291142320B0
:104540002115232E3113232A5113232861132326E7
:10455000711323248113232291132320A113232ECB
:10456000B1114183F51703DA411063E7E7088D477E
:104570002A8BAE8B328D63F34701014A2395611379
:1045800091472398F112C167138C0110F5175289D6
:104590008144E28A3EC68D479319090193D90901E6
:1045A00063EE3705C167FD173379F900931D3900B4
:1045B000B307BC0183C7A7001307C00F93F7D70F3A
:1045C0006399E70891C0814B1306C00F81454808E5
:1045D000EFC0AFB283D7AA023247FD17C207C1832B
:1045E000637FF71697A500009385C5B017A5000057
:1045F000130505BBEF400057FD54BDA07D5969BFB1
:1046000091465008A2854E85EFF09F95635B0500AB
:1046100097A50000938505AE17A5000013058580BA
:10462000D1BF83576101B5EF8347410191073E94A4
:1046300042044180A24783D7E700E363F4FCE69499
:1046400085476398F41263060D0083A70A032320AD
:10465000FD00FD19C20993D909018D477D1963F346
:1046600037010D49E3192AF38320C114032481146F
:10467000268503290114832441148329C113032AA5
:104680008113832A4113032B0113832BC112032CA3
:104690008112832C4112032D0112832DC1117161EE
:1046A000828003D6A112E311F6F8CA86EE8522872E
:1046B0001795000013054579EF40C04A9305440063
:1046C00083464101C2053008C1814E85EFF05F8904
:1046D000635B050097A500009385C5A117950000B1
:1046E0001305857901BF4808EFF0FF830DE1EE85E2
:1046F000179500001305857AEF40C0469146500893
:10470000A2854E85231B0100EFF05FAC31BF6388AB
:104710000B001306C00F4C085E85EF30D00183D725
:1047200001130D476364F7021386011383D5A112A9
:104730005685EFF03FC7635B050097A500009385A2
:10474000659B17950000130525776DB523983113E8
:1047500023998112D247850C23A6F112F1B5B387B4
:10476000BA01814C01443EC497AD0000938D8D98F1
:10477000D1B5E3D097EE13860113DA856285EFF0A9
:104780007FC2E35805EC97A500009385A596179581
:1047900000001305A574B9BD6971B7070400232E85
:1047A00031119107C1692324811223202113232869
:1047B0006111232671112326111223229112232C19
:1047C0004111232A51112324811123A2F1101384B2
:1047D000A110EF0070060149F519179B0000130B9B
:1047E0002B7D979B0000938B6B6B131A890093149E
:1047F000090185462286D2852D45C18023100400FB
:1048000023110400231204002313040097C0FF1F88
:10481000E78000CD29C597A500009385A58D179544
:1048200000001305656DEF40E0338320C1120324BF
:10483000811285472380F11083244112032901123C
:104840008329C111032A8111832A4111032B0111EC
:10485000832BC110032C81100145556182800345D3
:104860000400EFF06FE7AA864A8697A500009385BB
:104870006588179500001305656AEF40A02E034672
:1048800004009307C00F630DF60C63E8C7024DC622
:1048900097A5000093850586179500001305C57937
:1048A000EF40402CA68513850110EFF08FF2634B8B
:1048B0000524FD572300F40041A09307E00F630196
:1048C000F60A9307F00FE315F6FC130600109305A4
:1048D000F00F0A85EFC06F82930600100A86D2851A
:1048E0002D4597C0FF1FE780A0BF05C597A5000015
:1048F000938545801795000013058563EF4080265A
:10490000979500009385057F179500001305856333
:1049100019BF81479306F00F130700103306F1000B
:1049200003460600631FD61A8507E399E7FE83D77F
:10493000211085072391F110050991472104E31601
:10494000F9EA83D6411003D621109795000093858C
:10495000657A1795000013052571EF40A020F1B589
:104960001306C00F81450A85EFB03FF94A86979537
:10497000000093852578179500001305A55F231285
:10498000040023110400130AE00FEF40A01D130CD4
:10499000F00F979A0000938AEA758355440063717B
:1049A000BA049305C00F2685EFF00FEC034704000F
:1049B0009307C00F6315F710835724006391071006
:1049C000A68513850110EFF0CFE0635A050E979589
:1049D000000093852572179500001305654305A017
:1049E00091460A862685EFF0AFD763550502979565
:1049F0000000938525701795000013052559EF4099
:104A00006016979500009385E56E179500001305D5
:104A1000E56011BD03460100630E8609835621003F
:104A20009387F6FFC207C18363EFF90403471100C0
:104A3000D6855A85EF400013835544008346010014
:104A400050009105C205C1812685EFF06FD1635BEF
:104A50000500979500009385E569179500001305FB
:104A6000A54171BF0A85EFF00FCC1DE5D6855E85A7
:104A7000EF40400F8355440091460A862685231156
:104A80000100EFF0AFF483470100035744009107A2
:104A9000BA972312F40011B783470100035764004B
:104AA0009107BA972313F400835724008507231135
:104AB000F400D1BF83574400E37AFAEEDDB5035723
:104AC0006400835644004A8697950000938585626A
:104AD0001795000013058550EF40C00823929110F0
:104AE000A1BD979500009385E5601795000013051B
:104AF000A55AEF402007A68513850110EFF06FCD72
:104B0000E35705E2979500009385C55E1795000071
:104B10001305054509BB130101DC232C8122232841
:104B20002123232631232E84AA898145328928080E
:104B30001306C00F232E1122232A9122232441235E
:104B40002322512323206123232E7121232C812111
:104B5000232A9121EFB07FDA5146977500009385A3
:104B6000E5B8480002C0EF30003D21C49307F9FFCB
:104B70001307700F7D556360F7381387F9FF4207FD
:104B8000C1674183F51763E8E73691470A862C0829
:104B90004E852310F100EFF0FF98635E05009795B6
:104BA000000093852555179500001305656BEF30C0
:104BB000707B7D5589A64A86A2856808230C210151
:104BC000231D3101EF3020374A866C084800EFC0C2
:104BD0000FA5A30CA10011099307800F7D5463E278
:104BE000270F83D441100D4A2684637C9A009305D5
:104BF000E00F0145EFF0CFD9131405014180636D3B
:104C00008A262285EFF02FD4637D250B03D7211050
:104C1000894763E6E7088D4763F39700814413866D
:104C200001104165A68711449308C00F328A8D4553
:104C30007D1593963700B29603C8A6001397070117
:104C40004183631E180163EB85001318340032980A
:104C500003D3C6008356C8006373D3003A8463E16C
:104C6000E5086301B708E98F8507E394F4FC8D47F5
:104C700063FC8706179600001306C606979500008A
:104C800093854547179500001305455FEF30906DFC
:104C900003D441102285EFF00FCB637425039305F5
:104CA000C00F2285EFF04FBC6359051C979500009B
:104CB000938545441795000013050563EF30906A0E
:104CC0007D5493140401C1808D4763F5971E979519
:104CD0000000938525421795000013056564C1BD4A
:104CE000FD5781BF814751B71306C00F8145480A60
:104CF000EFB0BFC02286979500009385A53F17951A
:104D0000000013056559EF30F065931734008144B6
:104D10003E9A8D4A179B0000130BCB3D979B0000DA
:104D2000938BCB178357EA0063E2F402A2851385C5
:104D30000110EFF00FAAE35D05F49795000093854D
:104D4000653B179500001305A50C0DA09146500A70
:104D5000A6852285EFF0CFA0635605029795000047
:104D600093854539179500001305C50BEF30905F0B
:104D70002286979500009385E53717950000130567
:104D8000A55429B7834751118346411181C78357E1
:104D9000611191E79106B694C204C18061B7938511
:104DA0004400C205300AC1812285EFF06F9B635B2E
:104DB0000500979500009385E533179500001305CE
:104DC000A50B6DB7480AEFF00F9615E9DA855E85F9
:104DD000EF305059A6859146500A2285231B0110B9
:104DE000EFF0CFBE834741119107BE948357CA00AD
:104DF000C204C18085DBFD172316FA0025B703DC4A
:104E000041106285EFF02FB4834741119107637021
:104E1000F5049305F00F6285EFF08FB7931C050141
:104E200093DC0C0163FB9A01979500009385852C18
:104E3000179500001305C54715BF9305C00F628580
:104E4000EFF08FA29305E00F6685EFF0EFA14C0A1B
:104E500003D54110EFF00FC0635B0500979500008C
:104E600093854529179500001305853B01B78347B6
:104E700041119107BE940DB7014422859305F00FAF
:104E8000EFF00FB12A84420541818D4763FBA700F3
:104E90009795000093850526179500001305C546D4
:104EA00031BD9305E00FEFF02F9CE34105E0420494
:104EB000418001BD2C082685EFF0CFB9635B05006A
:104EC0009795000093850523179500001305054766
:104ED000F9B9938701100E043E940347A400930789
:104EE000E00F6314F70023929110035701008D47E0
:104EF00063FCE70201458320C1230324812383242B
:104F00004123032901238329C122032A8122832AE1
:104F10004122032B0122832BC121032C8121832CCD
:104F200041211301012482800A86CE851385011058
:104F3000EFF04FC7E35005FC979500009385851B64
:104F400017950000130585419DB16D7123248110D3
:104F500023229110232021112A842E89B284814595
:104F60001306C00F480023261110EFB01F9983C706
:104F7000011089EF7D5422858320C1100324811004
:104F8000832441100329011051618280E30409FE4A
:104F9000E35290FE1307F4FF4207C1674183F51700
:104FA000E3EAE7FC228501464C00EFF0AFD72A8404
:104FB000E34205FC69D10344410063D384002684A5
:104FC00022862C004A85EF20107775B783C70186AB
:104FD00085E7411181461386411381451D4506C66B
:104FE00097B0FF1FE780C04FB24085472380F1860E
:104FF0001385411341018280138541138280411141
:1050000006C655229307803E3355F502B2409306FB
:10501000F5FF33B5A6003687B7F600E098CA9307C8
:10502000F5FFDCCA0567B7E700E023A0E7109307A8
:10503000F0029CC241018280938781868843CC43E1
:105040008280138781861C4358433385A740B3B7BA
:10505000A700B305B7409D8D8280914763EEB702EC
:1050600017970000130787318A05BA959C41BA97B4
:105070008287B717004003A7470B1345F5FF698FD9
:1050800023AAE70A03A7070B698F23A8E70A03A748
:10509000070A798D23A0A70A8280B717004083A64C
:1050A000470B1347F5FFF98E23AAD70A83A6070BF0
:1050B000558D23A8A70A83A6070A758F23A0E70AA0
:1050C0008280B717004003A7470B498F23AAE70A3E
:1050D00003A7070B1345F5FF45BFB717004083A68D
:1050E000470B1347F5FF758F23AAE70A03A7070AA3
:1050F000598D4DB7B717004003A7470B498FEDB740
:10510000914763EEB70217970000130767288A05D7
:10511000BA959C41BA978287B717004003A7470DFD
:105120001345F5FF698F23AAE70C03A7070D698FC5
:1051300023A8E70C03A7070C798D23A0A70C828076
:10514000B717004083A6470D1347F5FFF98E23AA32
:10515000D70C83A6070D558D23A8A70C83A6070C93
:10516000758F23A0E70C8280B717004003A7470D77
:10517000498F23AAE70C03A7070D1345F5FF45BF89
:10518000B717004083A6470D1347F5FF758F23AA75
:10519000E70C03A7070C598D4DB7B717004003A7BD
:1051A000470D498FEDB7B717004003D5870042057B
:1051B00041819377050491EB9377F5013755E80129
:1051C000130505803345F50282809377050C13079C
:1051D00000046397E7009377F50137459C1CCDB732
:1051E0002165130505D08280B717004013077005AD
:1051F0002380E704130780FA2380E70401000100FD
:1052000003C7670411E91377D70F2383E704B717A0
:10521000004023800704828013672700FDB7814781
:1052200037370040A14663C4C700328582800345FA
:10523000B740E38EA6FE3385F500034505008507DC
:105240002304A740CDB7B7270040C8C7094723802C
:10525000E70011472380E7008280B727004023A69C
:10526000A74009472380E74011472380E740828019
:10527000411122C406C62A84EFF0FFF22947B30782
:10528000E502B2408D83B3D7870222449507B3D796
:10529000E70237370040C207C1832316F7404101B8
:1052A0008280716541111305052006C6EFF05FFC91
:1052B000B7370040130770F82381E7400D47A381FB
:1052C000E74013070004A380E74005472387E74032
:1052D000B24041018280411122C406C62A84EFF007
:1052E0009FEC2947B307E502B2408D83B3D787020D
:1052F00022449507B3D7E70237470040C207C1836E
:105300002316F7C041018280716541111305052004
:1053100006C6EFF05FFCB7470040130770F8238123
:10532000E7C00D47A381E7C013070004A380E7C0CF
:1053300005472387E7C0B2404101828037470040DC
:10534000834727C01A0593F7F703C98F93F7F70F21
:105350002301F7C08280B747004003C717C019C9AF
:10536000D98DA380B7C003C707C013678700238008
:10537000E7C0828093C5F5FFF98DA380B7C0828016
:10538000B74700402147B746004091E1828003C6FD
:10539000B7C0E30CC7FE05050346F5FFFD15C205C2
:1053A0002384C6C0C181D5B7B687B2882A832E8828
:1053B000639D061463F9C50A4167636EE61AB70771
:1053C00000016363F63493568601E14717970000A6
:1053D00013074709369703470700BA9713070002D8
:1053E0001D8F19CB3398E500B357F500B318E600CD
:1053F00033E807013313E50013D608013355C8021B
:1054000093960801C182935703013377C802B3858D
:10541000A60242073368F700637AB80046989307FC
:10542000F5FF636418016367B8303E853308B84000
:105430003357C8024203135303013378C802B386BB
:10544000E602420833686800637BD80046989307F9
:10545000F7FF6365180179176363D8003E8742053B
:10546000598D8145828001E60547B358C7024167DF
:1054700063EAE80EB707000163ECF82893D68801C9
:10548000E147179700001307E7FD369783460700AB
:10549000BE9693070002958FE5EB939E0801338734
:1054A000154113DF080193DE0E0185459357030173
:1054B0003355E7033377E703B306D5034207D98FA4
:1054C00063FAD700C6971307F5FF63E4170163E695
:1054D000D7263A85958F33D7E70342031353030149
:1054E000B3F7E703B30ED703C207B3E7670063FB65
:1054F000D701C6979306F7FF63E51701791763E3B2
:10550000D70136874205598D828063E2D504C16791
:1055100063E2F604B707000163E4F61E13D78601C1
:105520006148979700009387E7F3BA9703C707008E
:10553000130E00024297330EEE40631A0E0C63ED19
:10554000B61C3335C5001345150081458280814561
:10555000014582809307F00F63F3D71C13D78600B1
:105560002148C1B71307F00FC686E37C17F193D625
:105570008800A14739B71307F00FB286E378C7E474
:1055800093568600A14799B5B398F80033D6D50055
:1055900013DF0801335EE6033397F500B356D500F9
:1055A000558F939E080193DE0E013313F50093553A
:1055B0000701B376E603B387CE03C206CD8E63FB45
:1055C000F600C6961306FEFF63E4161763F2F6169E
:1055D000791EC6969D8E33D6E60393170701C183C5
:1055E000B3F6E6033385CE02139706015D8F637B26
:1055F000A70046979307F6FF636817136376A71211
:105600007916469793150E01098FD18D45B5B3577D
:10561000E600B396C601DD8E33D3E50013DF060145
:10562000B357E303939E060193DE0E013398C50141
:105630003357E50033680701935808013316C60154
:105640003373E303B385FE024203B368130163FBC4
:10565000B800B6981387F7FF63EAD80C63F8B80C64
:10566000F917B698B388B84033D7E80342081358FF
:105670000801B3F8E8033383EE02C208B3E508017A
:1056800063FB6500B6951308F7FF63EDD50863FB70
:1056900065087917B695C207416FD98F1307FFFFC9
:1056A000B3F6E70093D80701718F4182B38EE6020B
:1056B000B3856540B386C60213D80E013387E8026E
:1056C000BA96C2963386C80263F3E6007A9693D8F8
:1056D0000601469663E2C5026385C5003E858145A5
:1056E000828041677D17F98EC206B3FEEE00331546
:1056F000C501F696E374D5FE1385F7FF81458280D8
:1057000013D70601414831BD93560601C1477DB903
:1057100093D60801C147B5B38145054582803687D8
:10572000014801B5428785BF3E86E9BDBA871DBFE6
:10573000328E4DB579154698D5B97915C69759BBAE
:105740003708100001117D183377B80026CA337866
:10575000D80093D4450113D34601131E37004EC61B
:105760001357D5010E089357D60193F4F47F1373A2
:10577000F37F06CE22CC4AC893D9F50193DEF60119
:105780003367C701131F350033E80701931F360045
:10579000338E64406380D9196356C0136304031CBD
:1057A000B70680009307F07F3368D800638FF43624
:1057B0009307800363C0C735FD4763CDC747130513
:1057C00000023305C541B3D7CF01B316A800339902
:1057D000AF00DD8E33392001B357C80133E926010C
:1057E0001D8F33092F41B3372F013306F74093172D
:1057F000860063D40724370780007D173374E600E2
:10580000630C042C2285EF200065130785FF9307A6
:105810000002998FB357F9003316E400D18F331982
:10582000E9006341972A33059740130615007D4729
:10583000634DC73813070002118FB356C9003319DF
:10584000E9003397E700558F333920013369270189
:1058500033D6C70081449377790081CF1377F9005D
:1058600091476308F70013074900333927014A9627
:105870003A899317860063D6071C13851400930793
:10588000F07FCE856304F520B70780FFFD17F18F09
:105890009398D70113593900A607B3E82801B183BB
:1058A0001375F57F9396C7005205F2406244B182AA
:1058B000FE05C98ECD8ED2444249B2494685B68591
:1058C00005618280631E0E0A138314001373E37F45
:1058D00063170322B367E701B368F801639D041AF5
:1058E00063870740638608443309FF41B3070741D4
:1058F00033362F013386C7409317860063D6074C93
:105900003389EF41B307E84033B62F013386C740F0
:10591000F68991B76350C00F6300030CB70680008F
:105920009307F07F3368D800638AF43A93078003C3
:1059300063CBC713FD4763DFC73513090EFE93071B
:105940000002B3562801630AFE001309000433095C
:10595000C94133192801B3EF2F013339F0013369FD
:10596000D90031A2B367F801638A071C9307FEFFD1
:10597000638C07389306F07F6309DE1A3E8E0DBDF7
:10598000B305934063910422B367E701638707324D
:105990009387F5FF638107449306F07F638CD520DE
:1059A000BE859307800363CCB72AFD4763CFB73C1E
:1059B000930700028D8F3319F700B356BF00B3175A
:1059C000FF003369D900B337F0003357B7003369AC
:1059D000F9003308E84041ACB367F801638007344D
:1059E0009307FEFF638A07209306F07F6308DE2E8D
:1059F0003E8E2DBF631E0E149386140093F7E67F30
:105A000063910734B367E7016395042C6380073E15
:105A1000B367F801638E07303309FF01B30707014D
:105A2000333FE9013386E7019317860063D7070008
:105A3000B70780FFFD177D8E854493777900E39F3C
:105A400007E09317D60193583900B3E8F80093574D
:105A500036001307F07F638DE404B207B18313F5BA
:105A6000F47FCE8581B53369F801333920017A9905
:105A7000B337E9013386E70093178600E3DF07FABF
:105A800085049307F07F6396F418CE851305F07FA5
:105A90008147814801BDC1EB6384083A9316360003
:105AA0009317D8018D82B3E8D700F6899357380051
:105AB000B3E7F800F9DB81451305F07FB70708006D
:105AC0008148CDB3370680FF7D167D8E93777900B0
:105AD000998CE39507D8B5B74A85EF20C0371307EF
